S01C000053656C665F62616C616E63655F626F745F494D552E737265636B
S11300000C945F000C947C000C947C000C947C0099
S11300100C947C000C947C000C947C000C947C006C
S11300200C947C000C947C000C947C000C9463076E
S11300300C947C000C94C00A0C94E90A0C947C0087
S11300400C947C000C947C000C947C000C947C003C
S11300500C947C00036EDB363D9A9999993DABAACA
S1130060AA2A3E000000803F084AD73B3BCE016EDF
S113007084BCBFFDC12F3D6C74319ABD56833DDAFB
S11300803D00C77F11BED9E4BB4C3E916BAAAABE0A
S1130090000000803F072C7AA5BA6CC590DA3B9328
S11300A065FC8BBC53F810FD3C5692834DBD879D77
S11300B03AB63DCBC9BF5BBE73DA0FC93F0011240A
S11300C01FBECFE5D8E0DEBFCDBF10E0A0E6B0E0B4
S11300D0ECE8FCE102C005900D92A436B107D9F713
S11300E020E0A4E6B0E001C01D92AF3CB207E1F706
S11300F00E947E090C94440E0C940000DF92EF924F
S1130100FF920F931F93CF93DF93182FD62ED42FE4
S1130110C52F662351F180ED0E942E0A812F0E9483
S1130120780A83E08A95F1F7000081ED0E942E0A97
S11301300D2F1C2FC0E0D0E0ED2CF12CE1E0EE1AE5
S1130140F108CE15DF0529F40E94AA0AF80180837C
S113015004C00E94940AF801808321960F5F1F4F08
S1130160CD1578F30E946B0A01C0D12C8D2DDF913F
S1130170CF911F910F91FF90EF90DF900895AB0105
S113018061E00E947E000895FF920F931F93CF9326
S1130190DF93C82F062FF42E152F662389F080EDE8
S11301A00E942E0A8C2F0E94780ACF2DD12F10E0A6
S11301B089910E94780A1F5F1013FACF0E946B0A7C
S11301C0DF91CF911F910F91FF900895CF93DF930B
S11301D01F92CDB7DEB76983AE014F5F5F4F61E019
S11301E00E94C4000F90DF91CF910895FF920F9366
S11301F01F93CF93DF931F92CDB7DEB7F62E8A01FC
S1130200BE016F5F7F4F0E94BF0021E030E0B90163
S113021002C0660F771FFA94E2F799816923F80107
S113022060830F90DF91CF911F910F91FF900895FC
S1130230EF92FF920F931F93CF93DF931F92CDB74B
S1130240DEB7182FE62EF42E022F442391F11982E3
S1130250BE016F5F7F4F0E94BF00882351F16E2D56
S113026070E06F1971096F5F7F4FE1E0F0E0AF015B
S113027002C0440F551FFA94E2F741505109062E6B
S113028002C0440F551F0A94E2F7202F30E0C90141
S113029002C0880F991F6A95E2F7BC01942F9095CC
S11302A0898189234623682F642B6983812F0E94C7
S11302B0E6000F90DF91CF911F910F91FF90EF9087
S11302C00895FF920F931F93CF93DF931F92CDB79F
S11302D0DEB7182F062FF42EBE016F5F7F4F0E94EA
S11302E0BF00FF2059F021E030E0B90102C0660FE1
S11302F0771F0A95E2F78981682B0BC021E030E073
S1130300B90102C0660F771F0A95E2F760958981EB
S113031068236983812F0E94E6000F90DF91CF91BB
S11303201F910F91FF90089540E066E08BE60E94D4
S1130330610108950E942A0A83E08A95F1F700007A
S113034087EA91E60197F1F700C000000E9494014A
S113035083EC99E00197F1F700C0000021E043E04D
S113036062E08BE60E94180123E043E062E08AE148
S11303700E94180164E089E10E94E60023E042E063
S113038064E08BE10E94180120E042E064E08CE12B
S11303900E94180183B7856083BF89B7816089BFD4
S11303A008954F925F926F927F928F929F92AF9235
S11303B0BF92CF92DF92EF92FF920F931F93CF934E
S11303C0DF93CDB7DEB7A4970FB6F894DEBF0FBEA8
S11303D0CDBF69877A878B879C872D873E874F8718
S11303E0588BE98AFA8A0B8B1C8B20E030E0A90138
S11303F0C601B5010E94110C811117C020E030E044
S1130400A9016FA978AD89AD9AAD0E94110C811133
S11304100CC020E030E0A9016BAD7CAD8DAD9EAD8C
S11304200E94110C882309F404C2A6019501C60197
S1130430B5010E94870D2B013C012FA938AD49ADB0
S11304405AADCA01B9010E94870D9B01AC01C301D9
S1130450B2010E94340B2B013C012BAD3CAD4DADE0
S11304605EADCA01B9010E94870D9B01AC01C301B5
S1130470B2010E94340B0E94EE0D2B013C019B0142
S1130480AC01C601B5010E94150C6D8B7E8B8F8B60
S1130490988FA30192016FA978AD89AD9AAD0E949E
S11304A0150C69837A838B839C83A30192016BADC2
S11304B07CAD8DAD9EAD0E94150C6D837E838F83C4
S11304C09887609178007091790080917A0090917A
S11304D07B00209170003091710040917200509126
S11304E073008090600090906100A0906200B090D2
S11304F06300409074005090750060907600709096
S113050077000E94870D6B017C01A3019201C50154
S1130510B4010E94870D9B01AC01C701B6010E9482
S1130520330B698F7A8F8B8F9C8F609160007091F1
S11305306100809162009091630020917800309175
S1130540790040917A0050917B00809074009090E3
S11305507500A0907600B0907700409070005090A5
S1130560710060907200709073000E94870D6B019F
S11305707C01A3019201C501B4010E94870D9B0176
S1130580AC01C701B6010E94340B6D8F7E8F8F8F33
S113059098A36091600070916100809162009091D5
S11305A0630020916000309161004091620050919D
S11305B063008090700090907100A0907200B090E1
S11305C073004090700050907100609072007090C1
S11305D073000E94870D20E030E040E05FE30E945A
S11305E0330B6B017C01A3019201C501B4010E948C
S11305F0870D9B01AC01C701B6010E94340B6B014E
S11306007C019B01AC0169817A818B819C810E9470
S1130610870D4B015C012D8D3E8D4F8D58A16D8151
S11306207E818F8198850E94870D9B01AC01C50155
S1130630B4010E94330B69A37AA38BA39CA3298DD5
S11306403A8D4B8D5C8D6D817E818F8198850E9462
S1130650870D4B015C01A70196016D897E898F8905
S1130660988D0E94870D9B01AC01C501B4010E94C5
S1130670330B2B013C012D8D3E8D4F8D58A16D897F
S11306807E898F89988D0E94870D6B017C01298D4D
S11306903A8D4B8D5C8D69817A818B819C810E941E
S11306A0870D9B01AC01C701B6010E94330B4B01BE
S11306B05C01C0906C00D0906D00E0906E00F090F2
S11306C06F002DEC3CEC4CE45EE369A17AA18BA1B4
S11306D09CA10E94870D2AE83BE446E85CE30E9463
S11306E0870DA70196010E94340B60936C007093F0
S11306F06D0080936E0090936F00C0906800D0905E
S11307006900E0906A00F0906B002DEC3CEC4CE446
S11307105EE3C301B2010E94870D2AE83BE446E888
S11307205CE30E94870DA70196010E94340B60933D
S113073068007093690080936A0090936B00C09086
S11307406400D0906500E0906600F09067002DECA6
S11307503CEC4CE45EE3C501B4010E94870D2AE839
S11307603BE446E85CE30E94870DA70196010E94E2
S1130770340B6093640070936500809366009093DB
S1130780670020916C0030916D0040916E00509193
S11307906F0069857A858B859C850E94340B6983FB
S11307A07A838B839C832091680030916900409107
S11307B06A0050916B006D857E858F8598890E94B3
S11307C0340B6D837E838F839887209164003091EE
S11307D06500409166005091670069897A898B8928
S11307E09C890E94340B6B017C0129A13AA14BA185
S11307F05CA169817A818B819C810E94340B698719
S11308007A878B879C87A30192016D817E818F817A
S113081098850E94340B6D877E878F87988BA501FE
S11308209401C701B6010E94340B698B7A8B8B8BC0
S11308309C8B2AE83BE446E05CE369857A858B85FA
S11308409C850E94870D69837A838B839C832AE825
S11308503BE446E05CE36D857E858F8598890E9444
S1130860870D6D837E838F8398872AE83BE446E077
S11308705CE369897A898B899C890E94870D6987E1
S11308807A878B879C87E0906000F09061000091EC
S1130890620010916300ED86FE860F87188BE0904E
S11308A07800F090790000917A0010917B00E98A39
S11308B0FA8A0B8B1C8BE0907400F0907500009109
S11308C0760010917700ED8AFE8A0F8B188F409086
S11308D07000509071006090720070907300C0902E
S11308E06000D0906100E0906200F090630069893C
S11308F07A898B899C89905829813A814B815C81C2
S11309000E94870D4B015C012D813E814F815885EA
S11309106D897E898F89988D0E94870D9B01AC011A
S1130920C501B4010E94330B4B015C0129853A8552
S11309304B855C85C301B2010E94870D9B01AC010C
S1130940C501B4010E94330BA70196010E94340B28
S113095060936000709361008093620090936300E1
S1130960409070005090710060907200709073001D
S1130970C0907800D0907900E0907A00F0907B00ED
S113098029813A814B815C816D857E858F8598892B
S11309900E94870D4B015C0129853A854B855C8556
S11309A06D897E898F89988D0E94870D9B01AC018A
S11309B0C501B4010E94340B4B015C012D813E81C1
S11309C04F815885C301B2010E94870D9B01AC0180
S11309D0C501B4010E94330BA70196010E94340B98
S11309E0609378007093790080937A0090937B00F1
S11309F0409070005090710060907200709073008D
S1130A00C0907400D0907500E0907600F09077006C
S1130A102D813E814F8158856D857E858F8598898E
S1130A200E94870D4B015C0129853A854B855C85C5
S1130A3069897A898B899C890E94870D9B01AC0105
S1130A40C501B4010E94330B4B015C0129813A8139
S1130A504B815C81C301B2010E94870D9B01AC01F3
S1130A60C501B4010E94340BA70196010E94340B06
S1130A706093740070937500809376009093770070
S1130A80C0907000D0907100E0907200F0907300FC
S1130A9029853A854B855C856D857E858F8598890A
S1130AA00E94870D4B015C012D813E814F81588549
S1130AB069897A898B899C890E94870D9B01AC0185
S1130AC0C501B4010E94340B4B015C0129813A81B8
S1130AD04B815C816D897E898F89988D0E94870DF9
S1130AE09B01AC01C501B4010E94330BA70196011F
S1130AF00E94340B609370007093710080937200B5
S1130B009093730060916000709161008091620025
S1130B1090916300209160003091610040916200E7
S1130B20509163008090780090907900A0907A00B2
S1130B30B0907B00409078005090790060907A00EB
S1130B4070907B00E0907400F09075000091760046
S1130B5010917700E982FA820B831C83E090740081
S1130B60F09075000091760010917700ED82FE827E
S1130B700F831887E0907000F0907100009172006C
S1130B8010917300E986FA860B871C87E090700049
S1130B90F09071000091720010917300ED86FE8652
S1130BA00F87188B0E94870D6B017C01A3019201B2
S1130BB0C501B4010E94870D9B01AC01C701B601B8
S1130BC00E94340B6B017C012D813E814F8158853D
S1130BD069817A818B819C810E94870D9B01AC0184
S1130BE0C701B6010E94340B6B017C012D853E8543
S1130BF04F85588969857A858B859C850E94870DE8
S1130C009B01AC01C701B6010E94340B0E94EE0D9A
S1130C106B017C01609160007091610080916200C1
S1130C2090916300A70196010E94150C60936000E7
S1130C3070936100809362009093630060917800E8
S1130C407091790080917A0090917B00A7019601C0
S1130C500E94150C609378007093790080937A0059
S1130C6090937B0060917400709175008091760080
S1130C7090917700A70196010E94150C609374006F
S1130C807093750080937600909377006091700064
S1130C90709171008091720090917300A701960188
S1130CA00E94150C60937000709371008093720021
S1130CB090937300A4960FB6F894DEBF0FBECDBF19
S1130CC0DF91CF911F910F91FF90EF90DF90CF9024
S1130CD0BF90AF909F908F907F906F905F904F9058
S1130CE008954F925F926F927F928F929F92AF92EC
S1130CF0BF92CF92DF92EF92FF920F931F93CF9305
S1130D00DF93CDB7DEB728970FB6F894DEBF0FBEDA
S1130D10CDBF41EC50E060E08AE30E94F600809190
S1130D20C100811105C083E08A95F1F70000F1CF7D
S1130D3041EC50E06EE08BE30E947E008091C100A4
S1130D406091C2000091C3009090C4008090C500DF
S1130D501091C6007090C9006090CA005090CB00FA
S1130D604090CC00F090CD00E090CE0070E0782B65
S1130D70882777FD8095982F0E947F0C20E030E033
S1130D8040E858E30E94870D5B016C016E2D70E012
S1130D907F29635E7F4F882777FD8095982F0E9477
S1130DA07F0C23E333E343E851E40E94150C24E36E
S1130DB03AEF4EE85CE30E94870D69837A838B8364
S1130DC09C83642D70E0752969507109882777FD2B
S1130DD08095982F0E947F0C23E333E343E851E48A
S1130DE00E94150C24E33AEF4EE85CE30E94870D61
S1130DF06D837E838F839887662D70E07729665D87
S1130E007F4F882777FD8095982F0E947F0C23E3DE
S1130E1033E343E851E40E94150C24E33AEF4EE82F
S1130E205CE30E94870D2B013C01612F70E078295F
S1130E30882777FD8095982F0E947F0C20E030E072
S1130E4040E858E30E94870D9F938F937F936F939D
S1130E50692D70E0702B882777FD8095982F0E946C
S1130E607F0C20E030E040E858E30E94870D9F9318
S1130E708F937F936F93E980FA800B811C812D817E
S1130E803E814F815885C301B2010E94D1010FB642
S1130E90F894DEBF0FBECDBF28960FB6F894DEBF20
S1130EA00FBECDBFDF91CF911F910F91FF90EF90B7
S1130EB0DF90CF90BF90AF909F908F907F906F9076
S1130EC05F904F9008951F920F920FB60F921124C6
S1130ED02F933F934F935F936F937F938F939F933E
S1130EE0AF93BF93EF93FF930E947106FF91EF912D
S1130EF0BF91AF919F918F917F916F915F914F912E
S1130F003F912F910F900FBE0F901F901895CF9285
S1130F10DF92EF92FF92C0906000D0906100E09069
S1130F206200F0906300FC01C082D182E282F3820D
S1130F308091780090917900A0917A00B0917B0023
S1130F40FB0180839183A283B38380917400909189
S1130F507500A0917600B0917700FA0180839183A7
S1130F60A283B3838091700090917100A09172006C
S1130F70B0917300F90180839183A283B383FF90BE
S1130F80EF90DF90CF9008952F923F924F925F920F
S1130F906F927F928F929F92AF92BF92CF92DF9285
S1130FA0EF92FF920F931F93CF93DF93CDB7DEB7EA
S1130FB062970FB6F894DEBF0FBECDBF1C018B0144
S1130FC05A8B498B6091600070916100809162003E
S1130FD0909163008090600090906100A090620006
S1130FE0B0906300C0907800D0907900E0907A00CF
S1130FF0F0907B00209178003091790040917A0044
S113100050917B002D833E834F8358872091780035
S11310103091790040917A0050917B0029833A8382
S11310204B835C832091740030917500409176006D
S11310305091770029873A874B875C8740906000FE
S11310405090610060906200709063002091700085
S11310503091710040917200509173002D873E874A
S11310604F87588B9B01AC010E94340BA50194015E
S11310700E94870D4B015C01A7019601C701B601CF
S11310800E94340B2D813E814F8158850E94870D2B
S11310909B01AC01C501B4010E94340B20E030E097
S11310A040E85FE30E94330B6B017C0129813A81A4
S11310B04B815C81CA01B9010E94340B29853A85B0
S11310C04B855C850E94870D4B015C01A301920155
S11310D0C301B2010E94340B2D853E854F8558898A
S11310E00E94870D9B01AC01C501B4010E94330B22
S11310F0A70196010E94BE0BE989FA896083718376
S113110082839383609178007091790080917A0052
S113111090917B008090700090907100A09072007C
S1131120B0907300C0906000D0906100E0906200C5
S1131130F0906300409074005090750060907600C9
S1131140709077009B01AC010E94340BA5019401BF
S11311500E94870D4B015C01A7019601C701B601EE
S11311600E94340BA30192010E94870D9B01AC01E4
S1131170C501B4010E94340B0E94980BDC01CB0121
S1131180B058F80180839183A283B3836091600097
S113119070916100809162009091630040906000C2
S11311A050906100609062007090630080907000C5
S11311B090907100A0907200B09073002091700024
S11311C03091710040917200509173002D833E83E1
S11311D04F835887C0907400D0907500E0907600DB
S11311E0F09077002091700030917100409172006E
S11311F05091730029873A874B875C872091600060
S113120030916100409162005091630029833A83D8
S11312104B835C83209178003091790040917A006F
S113122050917B002D873E874F87588B9B01AC01E3
S11312300E94340BA30192010E94870D2B013C01F3
S1131240A5019401C501B4010E94340B2D813E8196
S11312504F8158850E94870D9B01AC01C301B201E7
S11312600E94340B20E030E040E85FE30E94330B3F
S11312704B015C01A7019601C701B6010E94340B22
S113128029853A854B855C850E94870D6B017C011D
S113129029813A814B815C81CA01B9010E94340BD6
S11312A02D853E854F8558890E94870D9B01AC0191
S11312B0C701B6010E94330BA50194010E94BE0B25
S11312C0F101608371838283938362960FB6F894ED
S11312D0DEBF0FBECDBFDF91CF911F910F91FF9065
S11312E0EF90DF90CF90BF90AF909F908F907F90C2
S11312F06F905F904F903F902F900895CF93DF931E
S1131300CDB7DEB76C970FB6F894DEBF0FBECDBF76
S113131080E090E0A0E8BFE389839A83AB83BC8339
S11313201D821E821F82188619861A861B861C86B9
S11313301D861E861F86188A198A1A8A1B8A1C8A89
S11313401D8A1E8A1F8A188E198E1A8E1B8E1C8E59
S11313508FE090E00E940E0B78940E949A0183ED36
S113136090E30197F1F700C000009E01235F3F4F17
S1131370AE01475F5F4FBE016B5F7F4FCE010196A9
S11313800E948707AE01475E5F4FBE016B5E7F4FD1
S1131390CE0141960E94C40783EC99E00197F1F7CE
S11313A000C0000089810E94220B8A810E94220BC6
S11313B08B810E94220B8C810E94220B8D810E94C2
S11313C0220B8E810E94220B8F810E94220B888522
S11313D00E94220B89850E94220B8A850E94220B7F
S11313E08B850E94220B8C850E94220B8D850E9486
S11313F0220B8E850E94220B8F850E94220B8889E6
S11314000E94220B89890E94220B8A890E94220B46
S11314108B890E94220B8C890E94220B8D890E9449
S1131420220B8E890E94220B8F890E94220B888DA9
S11314300E94220B898D0E94220B8A8D0E94220B0E
S11314408B8D0E94220B8C8D0E94220B8AE00E94BD
S1131450220B8BCF11B88CE080B9089594EA96BF23
S11314604FEF50E060E070E006B607FC06C0415064
S1131470510961097109C0F704C0452B462B472B5C
S113148011F191B1987F983011F09031F1F483B952
S113149084E886BF8FEF90E0A0E0B0E006B607FCDA
S11314A005C00197A109B109C8F704C0892B8A2B8B
S11314B08B2B69F091B1987F983159F081E0903489
S11314C049F480E0089581E0089581E0089581E081
S11314D0089580E0089584E986BF80E090E006B630
S11314E004FE05C00196811521E09207C1F7089515
S11314F083B984E886BF8FEF90E0A0E0B0E006B641
S113150007FC05C00197A109B109C8F704C0892BDC
S11315108A2B8B2B39F091B1987F81E0983219F4A2
S113152080E0089581E0089584EC86BF8FEF90E019
S1131530A0E0B0E006B607FC05C00197A109B10917
S1131540C8F704C0892B8A2B8B2B11F083B1089523
S113155080E0089584E886BF8FEF90E0A0E0B0E0DB
S113156006B607FC05C00197A109B109C8F704C074
S1131570892B8A2B8B2B11F083B1089580E0089579
S11315801F920F920FB60F9211242F938F939F9354
S1131590EF93FF938BB12CB18871E0917E00EF5FE4
S11315A0EF7190917D00E91739F0E0937E00F0E04F
S11315B0EF57FF4F208301C082E080937C00FF91AE
S11315C0EF919F918F912F910F900FBE0F901F90CD
S11315D018951F920F920FB60F9211248F939F9319
S11315E0EF93FF939091800080917F00981761F0B2
S11315F0E0917F00EF5FEF71E0937F00F0E0EF5543
S1131600FF4F80818CB901C05598FF91EF919F9154
S11316108F910F900FBE0F901F901895109280001D
S113162010927F0010927E0010927D0099231CF48A
S113163022E02BB99F7790BD89B988E98AB986E8F9
S113164080BD0895209180002F5F2F7190917F00BD
S11316502917E1F3E22FF0E0EF55FF4F8083209349
S11316608000559A08955058BB27AA270ED00EC261
S1131670FFD130F004D220F031F49F3F11F41EF476
S1131680BEC10EF4E095E7FBB4C1E92F10D280F39C
S1131690BA17620773078407950718F071F49EF56B
S11316A028C20EF4E0950B2EBA2FA02D0B01B90120
S11316B090010C01CA01A0011124FF27591B99F0C4
S11316C0593F50F4503E68F11A16F040A22F232FD0
S11316D0342F4427585FF3CF469537952795A79520
S11316E0F0405395C9F77EF41F16BA0B620B730BC7
S11316F0840BBAF09150A1F0FF0FBB1F661F771F38
S1131700881FC2F70EC0BA0F621F731F841F48F4EC
S1131710879577956795B795F7959E3F08F0B3CF72
S11317209395880F08F09927EE0F9795879508955C
S11317309F939F77EEE389379E0720F4E4E5F0E07A
S113174086D109C017D19058A2EA2AED3FE049ECAE
S11317505FE39BDF9BD10F9007FC9058089588D1DD
S113176058F080E891E009F49EEF89D128F040E830
S113177051E059F45EEF09C042C1BBC1E92FE078E2
S113178096D168F3092E052AC1F3261737074807AF
S1131790590738F00E2E07F8E02569F0E025E064DB
S11317A00AC0EF6307F8009407FADB01B9019D0151
S11317B0DC01CA01AD01EF9347D068D10AD05F9133
S11317C0552331F02BED3FE049E450FD49EC4CCF7B
S11317D00895DF93DD27B92FBF7740E85FE316163E
S11317E0170648075B0710F4D92F8AD19F938F936C
S11317F07F936F9331D2E8E6F0E004D147D12F9183
S11318003F914F915F918FD1DD2349F09058A2EA27
S11318102AED3FE049EC5FE3D0785D2736DFDF91C6
S113182035C1C3D008F481E008950CD02FC127D16D
S113183040F01ED130F021F45F3F19F0DAC05111AD
S113184059C1DDC034D198F39923C9F35523B1F3B9
S1131850951B550BBB27AA2762177307840738F01B
S11318609F5F5F4F220F331F441FAA1FA9F333D07A
S11318700E2E3AF0E0E830D091505040E695001C2E
S1131880CAF729D0FE2F27D0660F771F881FBB1FEA
S1131890261737074807AB07B0E809F0BB0B802DC4
S11318A0BF01FF2793585F4F2AF09E3F510568F010
S11318B0A0C020C15F3FECF3983EDCF3869577959A
S11318C06795B795F7959F5FC9F7880F911D969512
S11318D0879597F90895E1E0660F771F881FBB1F6E
S11318E0621773078407BA0720F0621B730B840B1B
S11318F0BA0BEE1F88F7E0950895E89409C097FBAA
S11319003EF490958095709561957F4F8F4F9F4FD2
S11319109923A9F0F92F96E9BB279395F695879516
S113192077956795B795F111F8CFFAF4BB0F11F4D9
S113193060FF1BC06F5F7F4F8F4F9F4F16C0882380
S113194011F096E911C0772321F09EE8872F762FB6
S113195005C0662371F096E8862F70E060E02AF0F7
S11319609A95660F771F881FDAF7880F96958795E3
S113197097F90895DF93CF931F930F938B01EC0195
S1131980E5E9F0E03FD082D09801AE018B01EC0193
S113199060E070E080E89FE366DE20D19801AE014C
S11319A00F911F91CF91DF91BEC0990F0008550F81
S11319B0AA0BE0E8FEEF16161706E807F907C0F0D1
S11319C012161306E407F50798F0621B730B840BD9
S11319D0950B39F40A2661F0232B242B252B21F4B3
S11319E008950A2609F4A140A6958FEF811D811D53
S11319F0089597F99F6780E870E060E008959FEF8D
S1131A0080EC0895DF93CF931F930F93FF92EF928F
S1131A10DF927B018C01689405C0DA2EEF0183D03C
S1131A20FE01E894A5912591359145915591AEF328
S1131A30EF012BDEFE019701A801DA9479F7DF901C
S1131A40EF90FF900F911F91CF91DF9108959F9395
S1131A508F937F936F93FF93EF939B01AC0157D0C8
S1131A60EF91FF91CFDF2F913F914F915F914FC045
S1131A7000240A9416161706180609060895002469
S1131A800A9412161306140605060895092E0394E3
S1131A90000C11F4882352F0BB0F40F4BF2B11F457
S1131AA060FF04C06F5F7F4F8F4F9F4F089557FDB6
S1131AB09058440F551F59F05F3F71F04795880FB8
S1131AC097FB991F61F09F3F79F08795089512164F
S1131AD013061406551FF2CF4695F1DF08C01616FB
S1131AE017061806991FF1CF8695710561050894AC
S1131AF00895E894BB2766277727CB0197F90895C3
S1131B009B01AC0160E070E080E89FE38ECE0BD0D7
S1131B10BDCFAEDF28F0B3DF18F0952309F069CF0D
S1131B206ECF1124E7CFC3DFA0F3959FD1F3950FB8
S1131B3050E0551F629FF001729FBB27F00DB11D4D
S1131B40639FAA27F00DB11DAA1F649F6627B00DDD
S1131B50A11D661F829F2227B00DA11D621F739FC6
S1131B60B00DA11D621F839FA00D611D221F749FD4
S1131B703327A00D611D231F849F600D211D822F1B
S1131B80762F6A2F11249F5750408AF0E1F0882362
S1131B904AF0EE0FFF1FBB1F661F771F881F91506F
S1131BA05040A9F79E3F510570F023CFA3CF5F3F6C
S1131BB0ECF3983EDCF3869577956795B795F795A2
S1131BC0E7959F5FC1F7FE2B880F911D969587952A
S1131BD097F9089511F40EF412CF41C070DFD0F3D9
S1131BE09923D9F3CEF39F57550B87FF46D0002492
S1131BF0A0E640EA900180585695979528F4805CB9
S1131C00660F771F881F20F026173707480730F420
S1131C10621B730B840B202931294A2BA695179438
S1131C200794202531254A2758F7660F771F881F08
S1131C3020F026173707480730F4620B730B840B28
S1131C40200D311D411DA09581F7B901842F9158B4
S1131C50880F9695879508959B01AC0158CF9F3FB7
S1131C6031F0915020F4879577956795B795880F53
S1131C70911D9695879597F9089591505040660F58
S10F1C80771F881FD2F70895F894FFCF57
S1071C8C0000803F91
S9030000FC
